:020000040800F2
:1000000000300020993B0008793800088738000844
:100010008D38000893380008993800080000000067
:100020000000000000000000000000009F380008F1
:10003000AD38000800000000BB380008C9380008CF
:10004000E93B0008E93B0008E93B0008E93B000800
:10005000E93B0008E93B0008E93B0008E93B0008F0
:10006000E93B0008E93B0008E93B0008D5380008F7
:10007000E93B0008E93B0008E93B0008E93B0008D0
:10008000E93B0008E93B0008E93B0008E93B0008C0
:10009000E93B0008E93B0008E93B0008E93B0008B0
:1000A000E93B0008E93B0008E93B0008E93B0008A0
:1000B000E93B0008E93B000800000000E93B0008BC
:1000C000E93B00080000000000000000E93B0008D8
:1000D00000000000E93B0008E93B0008E93B00089C
:1000E000E93B0008E93B00080000000000000000B8
:1000F0000000000000000000000000000000000000
:1001000000000000000000000000000000000000EF
:100110000000000000000000E93B0008E93B000887
:1001200000000000000000000000000000000000CF
:1001300000000000000000000000000000000000BF
:10014000E93B0008E93B0008000000000000000057
:10015000000000000000000000000000000000009F
:10016000000000000000000000000000000000008F
:10017000000000000000000000000000000000007F
:0801800000000000E93B00084B
:1001900010B5054C237833B9044B13B10448AFF3C1
:1001A00000800123237010BD7000002000000000BB
:1001B000BC4B000808B5034B1BB103490348AFF320
:1001C000008008BD0000000074000020BC4B000847
:1001D00001F0FF01102A2BDB10F0070F08D010F8F8
:1001E000013B013A8B422DD010F0070F42B3F6D1FC
:1001F000F0B441EA012141EA014122F007047FF015
:1002000000070023F0E80256083C85EA010586EA6B
:10021000010685FA47F5A3FA87F586FA47F6A5FAA7
:1002200087F68EB9EED1F0BC01F0FF0102F00702B3
:1002300032B110F8013B013A83EA010313B1F8D15E
:100240000020704701387047002D06BF354603383F
:10025000073815F0010F07D1013015F4807F02BF78
:10026000013015F4C03F0130F0BC0138704700BFC9
:1002700080B500AF084A084B1B6843F010031360B9
:10028000032001F049F8002000F008F803F0D0FA4C
:100290000023184680BD00BF0020024080B582B018
:1002A00000AF7860124B1A68124B1B7819464FF456
:1002B0007A73B3FBF1F3B2FBF3F3184601F061F884
:1002C0000346002B01D001230EE07B680F2B0AD8D8
:1002D000002279684FF0FF3001F029F8064A7B6868
:1002E0001360002300E0012318460837BD4680BD97
:1002F00008000020040000200000002080B400AFAF
:10030000064B1B781A46064B1B681344044A1360BD
:1003100000BFBD465DF8047B704700BF04000020AD
:100320009C00002080B400AF034B1B681846BD46FC
:100330005DF8047B704700BF9C00002080B483B050
:1003400000AF786000BF0C37BD465DF8047B704796
:1003500080B483B000AF786000BF0C37BD465DF855
:10036000047B704780B59CB000AF7860002387F8AD
:100370006F300023BB660023FB607B68002B01D13C
:10038000012370E17B681B69002B7B685B6C03F0C9
:100390001003002B76D17B685B6C002B52D17B68FD
:1003A00000229A647B6800221A657B680022DA6466
:1003B0007B68002283F84020786803F0D9F87B68D6
:1003C0001B689B6803F08053002B3BD1786800F0DA
:1003D00079FE034687F86F307B685B6C03F010038F
:1003E000002B2FD197F86F30002B2BD17B685B6CE3
:1003F00023F4885323F0020343F002027B685A641B
:100400007B681B687A681268926822F040529A6092
:100410007B681B687A681268926842F080529A6022
:10042000934B1B68934AA2FB03239A0C13469B0031
:1004300013445B00FB6002E0FB68013BFB60FB6870
:10044000002BF9D17B681B689B6803F08053002B5D
:1004500007D07B681B689B6803F00053B3F1005F13
:1004600010D17B685B6C23F0120343F010027B68B1
:100470005A647B689B6C43F001027B689A64012399
:1004800087F86F307B685B6C03F01003002B40F043
:10049000DD8097F86F30002B40F0D8807B681B68B8
:1004A0009B6803F00403002B40F0D0807B685B6CFA
:1004B00023F4817343F002027B685A646E4B7B66BF
:1004C0007B681B68B3F1A04F02D16C4B3B6102E02B
:1004D0004FF0A0433B617B681B689B6803F00303FC
:1004E000012B08D17B681B681B6803F00103012BFB
:1004F00001D1012300E00023002B1CD13B69002B1C
:1005000010D03B699B6803F00303012B07D13B69C3
:100510001B6803F00103012B01D1012300E000233C
:10052000002B08D17B6E9B6823F440327B685B68AC
:100530001A437B6E9A607B68DB695A037B689B6B0E
:10054000012B02D04FF4805300E000231A437B6854
:10055000DB681A437B689B681343BA6E1343BB6620
:100560007B685B6A012B1BD17B68DB69002B09D19F
:100570007B689B6A013B5A04BB6E134343F4803390
:10058000BB660DE07B685B6C23F0220343F0200226
:100590007B685A647B689B6C43F001027B689A64B9
:1005A0007B68DB6A012B07D07B68DA6A7B681B6B90
:1005B0001343BA6E1343BB667B681B689B6803F0EA
:1005C0000C03002B13D17B681A687B681B68DB68FF
:1005D00023F4804323F00203D3607B689B699A0372
:1005E0007B685B6B5B001343BA6E1343BB667B682F
:1005F0001A687B681B68D968214B0B40B96E0B43A6
:10060000D3607B681B69012B0CD17B681B687A68FF
:100610001268126B22F00F017A68126A013A0A43DB
:100620001A6307E07B681B687A681268126B22F015
:100630000F021A637B6800229A647B685B6C23F06C
:10064000030343F001027B685A640AE07B685B6C39
:1006500023F0120343F010027B685A64012387F8E9
:100660006F3097F86F3018467037BD4680BD00BFB9
:100670000800002083DE1B430003005000010050EF
:1006800007C0F0FF80B586B000AFF860B9607A604F
:100690000023FB75FB681B689B6803F00403002BB9
:1006A00040F0B980FB6893F84030012B01D1022360
:1006B000B4E0FB68012283F840205A4B9B6803F0AA
:1006C0001F03002B40F0A080F86800F09DFC03465B
:1006D000FB75FB7D002B40F09280FB685B6C23F484
:1006E000706323F0010343F48072FB685A644D4B3E
:1006F0009B6803F01F03002B04D0FB681B68B3F159
:10070000A04F15D1FB685B6C23F48012FB685A6420
:10071000FB681B68DB6803F00073002B27D0FB68C5
:100720005B6C23F4405343F48052FB685A641EE030
:10073000FB685B6C43F48012FB685A64FB681B68BF
:10074000B3F1A04F04D0FB681B68374A93420ED127
:100750004FF0A043DB6803F00073002B07D0FB6869
:100760005B6C23F4405343F48052FB685A64FB688B
:100770005B6C03F48053B3F5805F06D1FB689B6C20
:1007800023F00602FB689A6402E0FB6800229A6488
:10079000FB68002283F84020FB68DB6B234A9A62E7
:1007A000FB68DB6B224ADA62FB68DB6B214A1A6367
:1007B000FB681B681C221A60FB681B68FA681268D9
:1007C000526842F010025A60FB681B68FA681268AF
:1007D000D26842F00102DA60FB68D86BFB681B68E4
:1007E00040331946BA687B6800F01EFEFB681B6840
:1007F000FA681268926842F004029A600DE0FB68A1
:10080000002283F8402008E00123FB75FB680022EA
:1008100083F8402001E00223FB75FB7D1846183762
:10082000BD4680BD00030050000100503D0F000890
:10083000B70F0008D30F000890B49CB000AF7860E9
:100840003960002387F86F300023FB607B6893F8E2
:100850004030012B01D10223A3E27B68012283F8FF
:1008600040207B681B689B6803F00403002B40F06A
:1008700087823B685B68042B1CD87B6819687B689F
:100880001B68186B3B685A6813465B0013445B0097
:100890001A461F239340DB4318403B681C683B68A3
:1008A0005A6813465B0013445B0004FA03F30343E6
:1008B0000B6363E03B685B68092B1ED87B68196893
:1008C0007B681B68586B3B685A6813465B0013448F
:1008D0005B001E3B1F2202FA03F3DB4318403B6818
:1008E0001C683B685A6813465B0013445B001E3B60
:1008F00004FA03F303434B6340E03B685B680E2B51
:100900001ED87B6819687B681B68986B3B685A68BF
:1009100013465B0013445B003C3B1F2202FA03F3C7
:10092000DB4318403B681C683B685A6813465B0011
:1009300013445B003C3B04FA03F303438B631DE069
:100940007B6819687B681B68D86B3B685A681346DC
:100950005B0013445B005A3B1F2202FA03F3DB43A4
:1009600018403B681C683B685A6813465B00134498
:100970005B005A3B04FA03F30343CB637B681B68B9
:100980009B6803F00C03002B40F0E5803B681B687C
:10099000092B1CD97B6819687B681B6898693B68C0
:1009A0001A6813465B0013441E3B072202FA03F346
:1009B000DB4318403B689C683B681A6813465B0041
:1009C00013441E3B04FA03F303438B6119E07B6875
:1009D00019687B681B6858693B681A6813465B0096
:1009E0001344072202FA03F3DB4318403B689C6878
:1009F0003B681A6813465B00134404FA03F303438D
:100A00004B613B685A697B681B68DB68DB0803F055
:100A100003035B0002FA03F3BB663B681B69013BFF
:100A2000032B4FD801A252F823F000BF3D0A000863
:100A30005F0A0008810A0008A30A00087B681A6898
:100A40007B681B68196E9C4B0B40396809688806E7
:100A5000B96E01430B4343F0004313667BE07B68B0
:100A60001A687B681B68596E934B0B40396809689C
:100A70008806B96E01430B4343F0004353666AE0B6
:100A80007B681A687B681B68996E8B4B0B403968D2
:100A900009688806B96E01430B4343F0004393662F
:100AA00059E07B681A687B681B68D96E824B0B40E3
:100AB000396809688806B96E01430B4343F0004367
:100AC000D36648E07B681B681B6E03F0F8423B6806
:100AD0001B689B069A4207D17B681B687A6812687C
:100AE000126E22F000421A667B681B685B6E03F090
:100AF000F8423B681B689B069A4207D17B681B68DB
:100B00007A681268526E22F000425A667B681B684F
:100B10009B6E03F0F8423B681B689B069A4207D124
:100B20007B681B687A681268926E22F000429A66AF
:100B30007B681B68DB6E03F0F8423B681B689B0612
:100B40009A4207D17B681B687A681268D26E22F0DD
:100B50000042DA6600BF7B681B689B6803F00303F2
:100B6000012B08D17B681B681B6803F00103012B74
:100B700001D1012300E00023002B40F00C813B68F1
:100B8000DB68012B0FD07B681B687A681268D2F88B
:100B9000B0103A681268012000FA02F2D2430A400B
:100BA000C3F8B0204AE07B681B687A681268D2F804
:100BB000B0103A681268012000FA02F20A43C3F842
:100BC000B0203B681B68092B1CD97B6819687B68BF
:100BD0001B6898693B681A6813465B0013441B3B0B
:100BE000072202FA03F3DB4318403B689C683B682A
:100BF0001A6813465B0013441B3B04FA03F30343D8
:100C00008B611BE07B6819687B681B6858693B68CF
:100C10001B685A1C13465B001344072202FA03F3B5
:100C2000DB4318403B689C683B681B685A1C1346B2
:100C30005B00134404FA03F303434B611F4B7B66D1
:100C40003B681B68102B05D17B6E9B6803F4000387
:100C5000002B15D03B681B68112B05D17B6E9B6860
:100C600003F08073002B0BD03B681B68122B40F005
:100C700092807B6E9B6803F48003002B40F08B8096
:100C80007B681B68B3F1A04F02D10D4B3B6102E0C2
:100C90004FF0A0433B617B681B689B6803F0030334
:100CA000012B0FD17B681B681B6803F00103012B2C
:100CB00008D1012307E000BF00F0FF8300030050CC
:100CC000000100500023002B50D13B69002B10D0B5
:100CD0003B699B6803F00303012B07D13B691B6849
:100CE00003F00103012B01D1012300E00023002BBD
:100CF0003CD13B681B68102B1DD17B681B68B3F18E
:100D0000A04F18D17B6E9B6843F400027B6E9A6003
:100D1000264B1B68264AA2FB03239A0C13469B0012
:100D200013445B00FB6002E0FB68013BFB60FB6877
:100D3000002BF9D12EE03B681B68112B0BD17B688F
:100D40001B68B3F1A04F06D17B6E9B6843F08072A5
:100D50007B6E9A601EE03B681B68122B1AD17B6E7B
:100D60009B6843F480027B6E9A6013E07B685B6C47
:100D700043F020027B685A64012387F86F300AE051
:100D80007B685B6C43F020027B685A64012387F820
:100D90006F3000E000BF7B68002283F8402097F8A6
:100DA0006F3018467037BD4690BC70470800002071
:100DB00083DE1B4380B49BB000AF786039600023B2
:100DC00087F867307B681B68B3F1A04F02D1594B9D
:100DD000FB6002E04FF0A043FB60FB68002B01D1F9
:100DE0000123A1E07B6893F84030012B01D102235D
:100DF0009AE07B68012283F840207B681B689B682F
:100E000003F00403002B7ED1FB689B6803F004030E
:100E1000002B78D1484B3B663B681B68002B3FD0CA
:100E20003B6E9B6823F460423B6859687B685B6B50
:100E30005B030B431A433B6E9A607B681B689B689D
:100E400003F00303012B08D17B681B681B6803F0C8
:100E50000103012B01D1012300E00023002B5CD111
:100E6000FB689B6803F00303012B07D1FB681B6839
:100E700003F00103012B01D1012300E00023002B2B
:100E80004BD13B6E9B6823F4716323F00F033A68E8
:100E900011683A6892680A431A433B6E9A603CE0D4
:100EA0003B6E9B6823F460423B6E9A607B681B68D4
:100EB0009B6803F00303012B08D17B681B681B6848
:100EC00003F00103012B01D1012300E00023002BDB
:100ED00023D1FB689B6803F00303012B07D1FB6858
:100EE0001B6803F00103012B01D1012300E0002363
:100EF000002B12D13B6E9B6823F4716323F00F0328
:100F00003A6E936009E07B685B6C43F020027B687B
:100F10005A64012387F8673000E000BF7B68002235
:100F200083F8402097F8673018466C37BD465DF867
:100F3000047B7047000100500003005080B584B06E
:100F400000AF78607B685B6AFB60FB685B6C03F0FA
:100F50005003002B26D1FB685B6C43F40072FB68E6
:100F60005A64FB681B68DB6803F44063002B15D1EF
:100F7000FB68DB69002B11D1FB685B6C23F480728A
:100F8000FB685A64FB685B6C03F48053002B05D14B
:100F9000FB685B6C43F00102FB685A64F86802F07E
:100FA00091FB04E0FB68DB6B1B6B7868984700BF24
:100FB0001037BD4680BD80B584B000AF78607B68D7
:100FC0005B6AFB60F868FFF7B9F900BF1037BD46F0
:100FD00080BD80B584B000AF78607B685B6AFB60E1
:100FE000FB685B6C43F04002FB685A64FB689B6CD7
:100FF00043F00402FB689A64F868FFF7A9F900BFA0
:101000001037BD4680BD000080B584B000AF786069
:101010000023FB607B681B689B6803F00303012BC4
:1010200008D17B681B681B6803F00103012B01D109
:10103000012300E00023002B3CD17B681B689A68E9
:101040001F4B1340002B0DD07B685B6C43F01002EC
:101050007B685A647B689B6C43F001027B689A64EE
:10106000012328E07B681B687A681268926842F066
:1010700001029A60FFF756F9F86014E0FFF752F9A1
:101080000246FB68D31A022B0DD97B685B6C43F0D8
:1010900010027B685A647B689B6C43F001027B689A
:1010A0009A64012307E07B681B681B6803F0010357
:1010B000012BE3D1002318461037BD4680BD00BF89
:1010C0003F00008080B584B000AF78600023FB60F3
:1010D0007B681B689B6803F00303012B08D17B68C6
:1010E0001B681B6803F00103012B01D1012300E001
:1010F0000023002B40D07B681B689B6803F00D0326
:10110000012B0FD17B681B687A681268926842F0E5
:1011100002029A607B681B6803221A60FFF702F9DB
:10112000F86022E07B685B6C43F010027B685A64D5
:101130007B689B6C43F001027B689A6401231CE08E
:10114000FFF7F0F80246FB68D31A022B0DD97B6833
:101150005B6C43F010027B685A647B689B6C43F0C5
:1011600001027B689A64012307E07B681B689B6827
:1011700003F00103012BE3D0002318461037BD46CE
:1011800080BD000080B485B000AF78607B6803F05C
:101190000703FB600C4BDB68BB60BA684FF6FF03CC
:1011A0001340BB60FB681A02BB68134343F0BF6384
:1011B00043F40033BB60044ABB68D36000BF1437FC
:1011C000BD465DF8047B704700ED00E080B400AFE1
:1011D000044BDB681B0A03F007031846BD465DF8A5
:1011E000047B704700ED00E080B483B000AF03469D
:1011F000FB71094997F907305B09FA7902F01F0280
:10120000012000FA02F241F8232000BF0C37BD464E
:101210005DF8047B704700BF00E100E080B483B05C
:1012200000AF03463960FB7197F90730002B0BDAEA
:101230000D49FB7903F00F03043B3A68D2B2120167
:10124000D2B20B441A7609E0084997F907303A6898
:10125000D2B21201D2B20B4483F8002300BF0C3784
:10126000BD465DF8047B704700ED00E000E100E062
:1012700080B489B000AFF860B9607A60FB6803F0B1
:101280000703FB61FB69C3F10703042B28BF042399
:10129000BB61FB690433062B02D9FB69033B00E009
:1012A00000237B610122BB6902FA03F35A1EBB686B
:1012B0001A407B699A4001217B6901FA03F3591EA8
:1012C0007B680B40134318462437BD465DF8047B0A
:1012D0007047000080B582B000AF78607B68013B4A
:1012E000B3F1807F01D301230FE00A4A7B68013B01
:1012F00053600F214FF0FF30FFF790FF054B0022A6
:101300009A60044B07221A60002318460837BD462E
:1013100080BD00BF10E000E080B582B000AF786013
:101320007868FFF72FFF00BF0837BD4680BD80B546
:1013300086B000AF0346B9607A60FB7300237B611F
:10134000FFF744FF78617A68B9687869FFF790FF22
:10135000024697F90F3011461846FFF75FFF00BFAE
:101360001837BD4680BD80B582B000AF0346FB7123
:1013700097F907301846FFF737FF00BF0837BD461B
:1013800080BD80B582B000AF78607868FFF7A2FFBB
:10139000034618460837BD4680BD80B584B000AF0F
:1013A00078600023FB607B68002B01D1012337E0CC
:1013B0007B68022283F821207B681B681B68FB6026
:1013C000FB6823F47F5323F03003FB607B685A688B
:1013D0007B689B681A437B68DB681A437B681B69E0
:1013E0001A437B685B691A437B689B691A437B6875
:1013F000DB691343FA681343FB607B681B68FA6878
:101400001A60786800F040F97B6800229A637B6874
:10141000012283F821207B68002283F8202000230A
:1014200018461037BD4680BD80B586B000AFF86065
:10143000B9607A603B600023FB75FB6893F820304D
:10144000012B01D102234AE0FB68012283F820200E
:10145000FB6893F82130012B3AD1FB68022283F814
:101460002120FB6800229A63FB681B68FA681268F7
:10147000126822F001021A603B687A68B968F8685D
:1014800000F0D4F8FB68DB6A002B08D0FB681B680F
:10149000FA681268126842F00E021A600FE0FB68E8
:1014A0001B68FA681268126842F00A021A60FB6848
:1014B0001B68FA681268126822F004021A60FB685E
:1014C0001B68FA681268126842F001021A6005E0AF
:1014D000FB68002283F820200223FB75FB7D184661
:1014E0001837BD4680BD80B584B000AF78607B689A
:1014F000DB6B1B68FB607B681B681B68BB607B68E1
:101500001B6C04229A40FB681340002B24D0BB685C
:1015100003F00403002B1FD07B681B681B6803F0DB
:101520002003002B07D17B681B687A681268126859
:1015300022F004021A607B68DB6B7A68126C04216B
:1015400001FA02F25A607B68DB6A002B6AD07B6882
:10155000DB6A7868984765E07B681B6C02229A40DA
:10156000FB681340002B2CD0BB6803F00203002B58
:1015700027D07B681B681B6803F02003002B0BD16E
:101580007B681B687A681268126822F00A021A6087
:101590007B68012283F821207B68DB6B7A68126C00
:1015A000022101FA02F25A607B68002283F82020AF
:1015B0007B689B6A002B35D07B689B6A786898476C
:1015C00030E07B681B6C08229A40FB681340002BBC
:1015D00028D0BB6803F00803002B23D07B681B686E
:1015E0007A681268126822F00E021A607B68DB6B60
:1015F0007A68126C012101FA02F25A607B680122BA
:101600009A637B68012283F821207B68002283F89B
:1016100020207B681B6B002B04D07B681B6B7868D9
:101620009847FFE700BF1037BD4680BD80B485B046
:1016300000AFF860B9607A603B60FB68DB6BFA680A
:10164000126C012101FA02F25A60FB681B683A68C9
:101650005A60FB685B68102B08D1FB681B687A68CE
:101660009A60FB681B68BA68DA6007E0FB681B6871
:10167000BA689A60FB681B687A68DA6000BF143742
:10168000BD465DF8047B704780B483B000AF7860DE
:101690007B681B681A46094B1344094AA2FB0323C3
:1016A0001B099A007B681A647B68064ADA6300BFEC
:1016B0000C37BD465DF8047B704700BFF8FFFDBFE7
:1016C000CDCCCCCC0000024080B487B000AF7860B5
:1016D000396000237B610023FB6000233B614EE106
:1016E0003B681A6801217B6901FA03F31340FB6030
:1016F000FB68002B00F040813B685B68022B03D045
:101700003B685B68122B23D17B69DA087B6808325F
:1017100053F822303B617B6903F007039B000F22E3
:1017200002FA03F3DB433A6913403B613B681A69F1
:101730007B6903F007039B0002FA03F33A69134342
:101740003B617B69DA087B680832396943F822100B
:101750007B681B683B617B695B00032202FA03F331
:10176000DB433A6913403B613B685B6803F003026B
:101770007B695B0002FA03F33A6913433B617B68C0
:101780003A691A603B685B68012B0BD03B685B6869
:10179000022B07D03B685B68112B03D03B685B686A
:1017A000122B30D17B689B683B617B695B00032215
:1017B00002FA03F3DB433A6913403B613B68DA68A2
:1017C0007B695B0002FA03F33A6913433B617B6870
:1017D0003A699A607B685B683B6101227B6902FA27
:1017E00003F3DB433A6913403B613B685B681B09C9
:1017F00003F001027B6902FA03F33A6913433B6188
:101800007B683A695A607B68DB683B617B695B0097
:10181000032202FA03F3DB433A6913403B613B685E
:101820009A687B695B0002FA03F33A6913433B61F0
:101830007B683A69DA603B685B6803F08053002B91
:1018400000F09A80554A554B9B6943F00103936120
:10185000524B9B6903F00103BB60BB68504A7B6934
:101860009B08023352F823303B617B6903F003038A
:101870009B000F2202FA03F3DB433A6913403B61FA
:101880007B68B3F1904F13D07B68464A93420DD0EA
:101890007B68454A934207D07B68444A934201D112
:1018A000032306E0052304E0022302E0012300E015
:1018B00000237A6902F00302920093403A691343CD
:1018C0003B6137497B699B0802333A6941F8232021
:1018D000374B1B683B61FB68DB433A6913403B6154
:1018E0003B685B6803F48033002B03D03A69FB68E4
:1018F00013433B612E4A3B6913602D4B5B683B6190
:10190000FB68DB433A6913403B613B685B6803F467
:101910000033002B03D03A69FB6813433B61244A30
:101920003B695360224B9B683B61FB68DB433A6930
:1019300013403B613B685B6803F48013002B03D0CA
:101940003A69FB6813433B61194A3B699360184B42
:10195000DB683B61FB68DB433A6913403B613B68F2
:101960005B6803F40013002B03D03A69FB68134350
:101970003B610F4A3B69D3607B6901337B613B6804
:101980001A687B6922FA03F3002B7FF4A9AE00BF2B
:101990001C37BD465DF8047B704700BF0010024055
:1019A000000001400004004800080048000C004806
:1019B0000004014080B5ADF5007D00AF3B1D18600F
:1019C0003B1D1B68002B02D1012300F0DABE3B1D3A
:1019D0001B681B6803F00103002B00F06E81B54B00
:1019E0005B6803F00C03042B0CD0B24B5B6803F074
:1019F0000C03082B5AD1AF4B5B6803F48033B3F56B
:101A0000803F53D14FF40033C7F8F431D7F8F431A5
:101A100093FAA3F3C7F8F031D7F8F031B3FA83F3B0
:101A2000DBB25B09DBB243F00103DBB2012B02D175
:101A3000A04B1B6815E04FF40033C7F8EC31D7F822
:101A4000EC3193FAA3F3C7F8E8314FF40033C7F849
:101A5000E431D7F8E43193FAA3F3C7F8E031954BBA
:101A60005B6A4FF40032C7F8DC21D7F8DC2192FA28
:101A7000A2F2C7F8D821D7F8D821B2FA82F252B22E
:101A800042F0200252B2D2B202F01F02012101FA4A
:101A900002F21340002B00F00F813B1D1B685B68B6
:101AA000002B40F00981012300F06BBE3B1D1B6839
:101AB0005B68B3F5803F06D17E4A7E4B1B6843F4DA
:101AC0008033136030E03B1D1B685B68002B0CD13A
:101AD000784A784B1B6823F480331360754A754B42
:101AE0001B6823F4802313601EE03B1D1B685B68AA
:101AF000B3F5A02F0CD16F4A6E4B1B6843F48023C3
:101B000013606C4A6B4B1B6843F4803313600BE02B
:101B1000684A684B1B6823F480331360654A654B41
:101B20001B6823F4802313606249624BDB6A23F055
:101B30000F023B1D1B689B681343CB623B1D1B6858
:101B40005B68002B5AD0FEF7EDFBC7F8F8010AE0FE
:101B5000FEF7E8FB0246D7F8F831D31A642B02D916
:101B6000032300F00EBE4FF40033C7F8D431D7F88A
:101B7000D43193FAA3F3C7F8D031D7F8D031B3FA00
:101B800083F3DBB25B09DBB243F00103DBB2012B71
:101B900002D1484B1B6815E04FF40033C7F8CC3135
:101BA000D7F8CC3193FAA3F3C7F8C8314FF4003318
:101BB000C7F8C431D7F8C43193FAA3F3C7F8C031DA
:101BC0003C4B5B6A4FF40032C7F8BC21D7F8BC210C
:101BD00092FAA2F2C7F8B821D7F8B821B2FA82F285
:101BE00052B242F0200252B2D2B202F01F020121E0
:101BF00001FA02F21340002BAAD05EE0FEF792FB3E
:101C0000C7F8F8010AE0FEF78DFB0246D7F8F83175
:101C1000D31A642B02D9032300F0B3BD4FF4003371
:101C2000C7F8B431D7F8B43193FAA3F3C7F8B03199
:101C3000D7F8B031B3FA83F3DBB25B09DBB243F020
:101C40000103DBB2012B02D11A4B1B6815E04FF4E4
:101C50000033C7F8AC31D7F8AC3193FAA3F3C7F827
:101C6000A8314FF40033C7F8A431D7F8A43193FA60
:101C7000A3F3C7F8A0310F4B5B6A4FF40032C7F8EB
:101C80009C21D7F89C2192FAA2F2C7F89821D7F8A4
:101C90009821B2FA82F252B242F0200252B2D2B28B
:101CA00002F01F02012101FA02F21340002BAAD117
:101CB00003E000BF0010024000BF3B1D1B681B6813
:101CC00003F00203002B00F07081D04B5B6803F03F
:101CD0000C03002B0BD0CD4B5B6803F00C03082BDF
:101CE0006DD1CA4B5B6803F48033002B67D10223AC
:101CF000C7F89431D7F8943193FAA3F3C7F8903129
:101D0000D7F89031B3FA83F3DBB25B09DBB243F06F
:101D10000103DBB2012B02D1BC4B1B6813E0022391
:101D2000C7F88C31D7F88C3193FAA3F3C7F8883110
:101D30000223C7F88431D7F8843193FAA3F3C7F8A4
:101D40008031B24B5B6A0222C7F87C21D7F87C2134
:101D500092FAA2F2C7F87821D7F87821B2FA82F283
:101D600052B242F0200252B2D2B202F01F0201215E
:101D700001FA02F21340002B07D03B1D1B681B69C0
:101D8000012B02D0012300F0FCBCA0489F4B1B6834
:101D900023F0F8023B1D1B685969F823C7F874311A
:101DA000D7F8743193FAA3F3C7F87031D7F87031CC
:101DB000B3FA83F301FA03F313430360F5E03B1D29
:101DC0001B681B69002B00F085800123C7F86C316C
:101DD000D7F86C3193FAA3F3C7F86831D7F86831B4
:101DE000B3FA83F303F1845303F584139B001A467B
:101DF00001231360FEF796FAC7F8F8010AE0FEF730
:101E000091FA0246D7F8F831D31A022B02D90323EC
:101E100000F0B7BC0223C7F86431D7F8643193FAF5
:101E2000A3F3C7F86031D7F86031B3FA83F3DBB2BC
:101E30005B09DBB243F00103DBB2012B02D1734B30
:101E40001B6813E00223C7F85C31D7F85C3193FAC2
:101E5000A3F3C7F858310223C7F85431D7F85431E7
:101E600093FAA3F3C7F85031684B5B6A0222C7F8B4
:101E70004C21D7F84C2192FAA2F2C7F84821D7F8A2
:101E80004821B2FA82F252B242F0200252B2D2B2E9
:101E900002F01F02012101FA02F21340002BAED022
:101EA0005A485A4B1B6823F0F8023B1D1B685969BE
:101EB000F823C7F84431D7F8443193FAA3F3C7F8AD
:101EC0004031D7F84031B3FA83F301FA03F31343F7
:101ED00003606AE00123C7F83C31D7F83C3193FA3C
:101EE000A3F3C7F83831D7F83831B3FA83F303F1E5
:101EF000845303F584139B001A4600231360FEF7F6
:101F000011FAC7F8F8010AE0FEF70CFA0246D7F812
:101F1000F831D31A022B02D9032300F032BC02237A
:101F2000C7F83431D7F8343193FAA3F3C7F8303116
:101F3000D7F83031B3FA83F3DBB25B09DBB243F09D
:101F40000103DBB2012B02D1304B1B6813E00223EB
:101F5000C7F82C31D7F82C3193FAA3F3C7F82831FE
:101F60000223C7F82431D7F8243193FAA3F3C7F832
:101F70002031264B5B6A0222C7F81C21D7F81C21AE
:101F800092FAA2F2C7F81821D7F81821B2FA82F211
:101F900052B242F0200252B2D2B202F01F0201212C
:101FA00001FA02F21340002BAED13B1D1B681B68E7
:101FB00003F00803002B00F0D8803B1D1B689B69D1
:101FC000002B67D00123C7F81431D7F8143193FAE6
:101FD000A3F3C7F81031D7F81031B3FA83F31A46D8
:101FE0000B4B13449B001A4601231360FEF79AF92A
:101FF000C7F8F8010EE0FEF795F90246D7F8F83178
:10200000D31A022B06D90323BBE300BF0010024002
:10201000208190100223C7F80C31D7F80C3193FAC5
:10202000A3F3C7F808310223C7F80431D7F8043105
:1020300093FAA3F207F580731A6007F1FC030222FA
:102040001A6007F1FC031B6893FAA3F207F1F80387
:102050001A60A54B5A6A07F1F4030221196007F1CF
:10206000F4031B6893FAA3F107F1F003196007F179
:10207000F0031B68B3FA83F35BB243F060035BB217
:10208000DBB203F01F03012101FA03F31340002B1D
:10209000B1D06AE007F1EC0301221A6007F1EC030A
:1020A0001B6893FAA3F207F1E8031A6007F1E8034B
:1020B0001B68B3FA83F31A468C4B13449B001A46F1
:1020C00000231360FEF72EF9C7F8F80109E0FEF7C8
:1020D00029F90246D7F8F831D31A022B01D9032384
:1020E0004FE307F1E40302221A6007F1E4031B68DF
:1020F00093FAA3F207F1E0031A6007F1DC0302226E
:102100001A6007F1DC031B6893FAA3F207F1D80306
:102110001A6007F1D40302221A6007F1D4031B6886
:1021200093FAA3F207F1D0031A606F4B5A6A07F1D2
:10213000CC030221196007F1CC031B6893FAA3F1C9
:1021400007F1C803196007F1C8031B68B3FA83F3EA
:102150005BB243F060035BB2DBB203F01F0301210B
:1021600001FA03F31340002BB1D13B1D1B681B6820
:1021700003F00403002B00F05981002387F8FF319E
:10218000594BDB6903F08053002B12D1564A564B52
:10219000DB6943F08053D361534BDB6903F080521A
:1021A00007F10C031A6007F10C031B68012387F881
:1021B000FF314F4B1B6803F48073002B1AD14C4A3C
:1021C0004B4B1B6843F480731360FEF7ABF8C7F802
:1021D000F80109E0FEF7A6F80246D7F8F831D31A5D
:1021E000642B01D90323CCE2414B1B6803F48073B9
:1021F000002BEFD03B1D1B68DB68012B06D13A4A50
:10220000394B1B6A43F0010313622FE03B1D1B682F
:10221000DB68002B0CD1344A334B1B6A23F00103DB
:102220001362314A304B1B6A23F0040313621DE032
:102230003B1D1B68DB68052B0CD12B4A2A4B1B6A04
:1022400043F004031362284A274B1B6A43F001033F
:1022500013620BE0244A244B1B6A23F00103136230
:10226000214A214B1B6A23F0040313623B1D1B68A8
:10227000DB68002B6BD0FEF755F8C7F8F8010BE0D0
:10228000FEF750F80246D7F8F831D31A41F28832F7
:10229000934201D9032374E207F1C40302221A60B6
:1022A00007F1C4031B6893FAA3F207F1C0031A6095
:1022B00007F1BC0302221A6007F1BC031B6893FA02
:1022C000A3F207F1B8031A6007F1B8031B68B3FA69
:1022D00083F3DBB25B09DBB243F00203DBB2022B18
:1022E00008D1014B1B6A13E00010024020819010BE
:1022F0000070004007F1B40302221A6007F1B40332
:102300001B6893FAA3F207F1B0031A60BB4B5B6A38
:1023100007F1AC020221116007F1AC02126892FAD7
:10232000A2F107F1A802116007F1A8021268B2FA3F
:1023300082F252B242F0400252B2D2B202F01F0216
:10234000012101FA02F21340002B99D064E0FDF75D
:10235000E9FFC7F8F8010BE0FDF7E4FF0246D7F804
:10236000F831D31A41F28832934201D9032308E2AB
:1023700007F1A40302221A6007F1A4031B6893FA71
:10238000A3F207F1A0031A6007F19C0302221A606E
:1023900007F19C031B6893FAA3F207F198031A60F4
:1023A00007F198031B68B3FA83F3DBB25B09DBB276
:1023B00043F00203DBB2022B02D1904B1B6A0DE00B
:1023C00007F1940302221A6007F194031B6893FA41
:1023D000A3F207F190031A60884B5B6A07F18C0245
:1023E0000221116007F18C02126892FAA2F107F142
:1023F0008802116007F188021268B2FA82F252B2C2
:1024000042F0400252B2D2B202F01F02012101FAA0
:1024100002F21340002B9FD197F8FF31012B05D119
:10242000764A764BDB6923F08053D3613B1D1B68F2
:10243000DB69002B00F0A481704B5B6803F00C0398
:10244000082B00F09B813B1D1B68DB69022B40F0D1
:10245000138107F184034FF080721A6007F184033F
:102460001B6893FAA3F207F180031A6007F1800357
:102470001B68B3FA83F303F1845303F584139B00C1
:102480001A4600231360FDF74DFFC7F8F80109E075
:10249000FDF748FF0246D7F8F831D31A022B01D9CD
:1024A00003236EE107F17C034FF000721A6007F11D
:1024B0007C031B6893FAA3F207F178031A6007F113
:1024C00078031B68B3FA83F3DBB25B09DBB243F03A
:1024D0000103DBB2012B02D1484B1B681BE007F163
:1024E00074034FF000721A6007F174031B6893FACB
:1024F000A3F207F170031A6007F16C034FF000724A
:102500001A6007F16C031B6893FAA3F207F16803E2
:102510001A603A4B5B6A07F164024FF00071116078
:1025200007F16402126892FAA2F107F160021160E9
:1025300007F160021268B2FA82F252B242F020024F
:1025400052B2D2B202F01F02012101FA02F213408C
:10255000002B9DD12948294B5B6823F474123B1D45
:102560001B68596A3B1D1B681B6A0B43134343607E
:1025700007F15C034FF080721A6007F15C031B687F
:1025800093FAA3F207F158031A6007F158031B6886
:10259000B3FA83F303F1845303F584139B001A46C3
:1025A00001231360FDF7BEFEC7F8F80109E0FDF74F
:1025B000B9FE0246D7F8F831D31A022B01D903230A
:1025C000DFE007F154034FF000721A6007F1540383
:1025D0001B6893FAA3F207F150031A6007F1500346
:1025E0001B68B3FA83F3DBB25B09DBB243F0010390
:1025F000DBB2012B04D1014B1B681DE0001002402F
:1026000007F14C034FF000721A6007F14C031B688E
:1026100093FAA3F207F148031A6007F144034FF05D
:1026200000721A6007F144031B6893FAA3F207F1E2
:1026300040031A60554B5B6A07F13C024FF0007192
:10264000116007F13C02126892FAA2F107F1380218
:10265000116007F138021268B2FA82F252B242F007
:10266000200252B2D2B202F01F02012101FA02F29C
:102670001340002B9BD083E007F134034FF08072AE
:102680001A6007F134031B6893FAA3F207F13003D1
:102690001A6007F130031B68B3FA83F303F1845324
:1026A00003F584139B001A4600231360FDF73AFEDE
:1026B000C7F8F80109E0FDF735FE0246D7F8F83112
:1026C000D31A022B01D903235BE007F12C034FF04F
:1026D00000721A6007F12C031B6893FAA3F207F14A
:1026E00028031A6007F128031B68B3FA83F3DBB2EF
:1026F0005B09DBB243F00103DBB2012B02D1234BB8
:102700001B681BE007F124034FF000721A6007F109
:1027100024031B6893FAA3F207F120031A6007F160
:102720001C034FF000721A6007F11C031B6893FA38
:10273000A3F207F118031A60144B5B6A07F1140245
:102740004FF00071116007F11402126892FAA2F1C1
:1027500007F11002116007F110021268B2FA82F25A
:1027600052B242F0200252B2D2B202F01F02012154
:1027700001FA02F21340002B9DD101E0012300E099
:102780000023184607F50077BD4680BD00100240C3
:1027900080B59EB000AF7860396000237B677B68AE
:1027A000002B01D1012364E1924B1B6803F0070267
:1027B0003B689A4210D28F498E4B1B6823F0070268
:1027C0003B6813430B608B4B1B6803F007023B68AD
:1027D0009A4201D001234CE17B681B6803F002039D
:1027E000002B08D08449844B5B6823F0F0027B689F
:1027F0009B6813434B607B681B6803F00103002B4D
:1028000000F0DF807B685B68012B3DD14FF4003323
:102810003B673B6F93FAA3F3FB66FB6EB3FA83F35C
:10282000DBB25B09DBB243F00103DBB2012B02D167
:10283000714B1B680FE04FF40033BB66BB6E93FA1D
:10284000A3F37B664FF400333B663B6E93FAA3F32E
:10285000FB65694B5B6A4FF40032BA65BA6D92FA58
:10286000A2F27A657A6DB2FA82F252B242F0200296
:1028700052B2D2B202F01F02012101FA02F2134059
:10288000002B7DD10123F4E07B685B68022B3DD1F6
:102890004FF000733B653B6D93FAA3F3FB64FB6C55
:1028A000B3FA83F3DBB25B09DBB243F00103DBB2C3
:1028B000012B02D1504B1B680FE04FF00073BB643B
:1028C000BB6C93FAA3F37B644FF000733B643B6CE7
:1028D00093FAA3F3FB63484B5B6A4FF00072BA6351
:1028E000BA6B92FAA2F27A637A6BB2FA82F252B2BD
:1028F00042F0200252B2D2B202F01F02012101FACC
:1029000002F21340002B3BD10123B2E002233B63D0
:102910003B6B93FAA3F3FB62FB6AB3FA83F3DBB27C
:102920005B09DBB243F00103DBB2012B02D1324B76
:102930001B680DE00223BB62BB6A93FAA3F37B62C0
:1029400002233B623B6A93FAA3F3FB612A4B5B6A67
:102950000222BA61BA6992FAA2F27A617A69B2FA8B
:1029600082F252B242F0200252B2D2B202F01F0200
:10297000012101FA02F21340002B01D1012378E07A
:102980001D491D4B5B6823F003027B685B681343A2
:102990004B60FDF7C7FC78670AE0FDF7C3FC024611
:1029A0007B6FD31A41F28832934201D9032360E04E
:1029B000114B5B6803F00C027B685B689B009A42DA
:1029C000EBD10C4B1B6803F007023B689A4215D908
:1029D0000849084B1B6823F007023B6813430B6050
:1029E000044B1B6803F007023B689A4206D00123A0
:1029F0003FE000BF00200240001002407B681B68DF
:102A000003F00403002B08D01C491C4B5B6823F423
:102A1000E0627B68DB6813434B607B681B6803F0F4
:102A20000803002B09D01549144B5B6823F460524E
:102A30007B681B69DB0013434B6000F025F80146FF
:102A40000E4B5B6803F0F002F0233B613B6993FAA5
:102A5000A3F3FB60FB68B3FA83F322FA03F3084A9B
:102A6000D35C21FA03F3074A13600020FDF716FC3C
:102A7000002318467837BD4680BD00BF00100240D5
:102A80000C4C00080800002080B48BB000AF00237D
:102A9000FB610023BB6100237B6200237B61002379
:102AA0003B62294B5B68FB61FB6903F00C03042B61
:102AB00002D0082B03D03CE0244B3B623CE0FB6996
:102AC00003F470124FF47013BB60BB6893FAA3F366
:102AD0007B607B68B3FA83F322FA03F31C4AD35C6E
:102AE0007B61194BDB6A03F00F020F233B613B69EB
:102AF00093FAA3F3FB60FB68B3FA83F322FA03F3C0
:102B0000144AD35CBB61FB6903F48033002B08D00B
:102B10000E4ABB69B2FBF3F37A6902FB03F37B62F3
:102B200004E07B690C4A02FB03F37B627B6A3B6235
:102B300002E0064B3B6200BF3B6A18462C37BD469D
:102B40005DF8047B704700BF0010024000127A005D
:102B5000EC4B0008FC4B000800093D0080B400AFBE
:102B6000034B1B681846BD465DF8047B704700BFE9
:102B70000800002080B582B000AFFFF7EFFF0146EC
:102B80000B4B5B6803F4E0624FF4E0637B607B68AF
:102B900093FAA3F33B603B68B3FA83F322FA03F39F
:102BA000044AD35C21FA03F318460837BD4680BDBA
:102BB000001002401C4C000880B582B000AFFFF747
:102BC000CDFF01460B4B5B6803F460524FF460533A
:102BD0007B607B6893FAA3F33B603B68B3FA83F3B3
:102BE00022FA03F3044AD35C21FA03F318460837A8
:102BF000BD4680BD001002401C4C000880B582B06C
:102C000000AF78607B68002B01D1012343E07B6833
:102C100093F86930DBB2002B06D17B68002283F881
:102C20006820786800F074FF7B68242283F86920AC
:102C30007B681B687A681268126822F001021A60C9
:102C4000786800F07DF90346012B01D1012322E0D1
:102C50007B685B6A002B02D0786800F0D7FA7B684B
:102C60001B687A681268526822F490425A607B6846
:102C70001B687A681268926822F02A029A607B6860
:102C80001B687A681268126842F001021A6078685C
:102C900000F05EFB034618460837BD4680BD80B590
:102CA00088B002AFF860B9603B601346FB80002338
:102CB0007B61FB6893F86930DBB2202B77D1BB686E
:102CC000002B02D0FB88002B01D1012370E0FB68B0
:102CD00093F86830012B01D1022369E0FB680122DF
:102CE00083F86820FB680022DA66FB68212283F8FB
:102CF0006920FDF717FB7861FB68FA88A3F850207C
:102D0000FB68FA88A3F8522034E0FB68B3F852302D
:102D10009BB2013B9AB2FB68A3F852203B68009338
:102D20007B6900228021F86800F05BFB0346002BE2
:102D300001D003233CE0FB689B68B3F5805F11D1B1
:102D4000FB681B69002B0DD1BB683B61FB681B68EE
:102D50003A691288C2F3080292B21A85BB6802333C
:102D6000BB6007E0FB681A68BB68591CB9601B7838
:102D70009BB21385FB68B3F852309BB2002BC4D1D1
:102D80003B6800937B6900224021F86800F029FB32
:102D90000346002B01D003230AE0FB68202283F8BE
:102DA0006920FB68002283F86820002300E00223EA
:102DB00018461837BD4680BD80B58AB002AFF860AE
:102DC000B9603B601346FB800023FB61FB6893F80E
:102DD0006A30DBB2202B40F0AD80BB68002B02D004
:102DE000FB88002B01D10123A5E0FB6893F8683034
:102DF000012B01D102239EE0FB68012283F86820A9
:102E0000FB680022DA66FB68222283F86A20FDF75D
:102E100089FAF861FB68FA88A3F85820FB68FA88F9
:102E2000A3F85A20FB689B68B3F5805F0ED1FB685E
:102E30001B69002B05D1FB6840F2FF12A3F85C2050
:102E400028E0FB68FF22A3F85C2023E0FB689B6876
:102E5000002B0DD1FB681B69002B04D1FB68FF22FE
:102E6000A3F85C2016E0FB687F22A3F85C2011E049
:102E7000FB689B68B3F1805F0CD1FB681B69002B7A
:102E800004D1FB687F22A3F85C2003E0FB683F22AB
:102E9000A3F85C20FB68B3F85C307B833AE0FB6806
:102EA000B3F85A309BB2013B9AB2FB68A3F85A20A0
:102EB0003B680093FB6900222021F86800F091FA3A
:102EC0000346002B01D0032335E0FB689B68B3F574
:102ED000805F12D1FB681B69002B0ED1BB687B6140
:102EE000FB681B689B8C9AB27B8B13409AB27B6900
:102EF0001A80BB680233BB600CE0BB685A1CBA6026
:102F0000FA681268928C92B2D1B27A8BD2B20A402D
:102F1000D2B21A70FB68B3F85A309BB2002BBED104
:102F2000FB68202283F86A20FB68002283F868206F
:102F3000002300E0022318462037BD4680BD000074
:102F400090B587B000AF78600023FB601023FB755D
:102F500000237B810023BB820023FB747B689A687B
:102F60007B681B691A437B685B691A437B68DB6972
:102F70001343FB607B681A687B681B6819689E4B6B
:102F80000B40F9680B4313607B681B687A68126812
:102F9000526822F440517A68D2680A435A607B68CA
:102FA0009A697B681B6A1343FB607B681B687A68BD
:102FB0001268926822F43061FA680A439A607B686A
:102FC0001B688E4A934221D18D4B1B6B03F0030388
:102FD000032B17D801A252F823F000BFED2F0008F1
:102FE000F92F0008FF2F0008F32F00080023FB75BE
:102FF0001EE00223FB751BE00423FB7518E0082389
:10300000FB7515E01023FB7500BF11E07B681B68A2
:103010007C4A934202D10023FB7509E07B681B6860
:10302000794A934202D10023FB7501E01023FB751E
:103030007B68DB69B3F5004F6FD1FB7D082B57D858
:1030400001A252F823F000BF6D300008893000085B
:10305000A5300008F1300008BF300008F13000084A
:10306000F1300008F1300008DB300008FFF782FD86
:1030700003465A007B685B685B081A447B685B68A0
:10308000B2FBF3F3BB8236E0FFF796FD03465A002E
:103090007B685B685B081A447B685B68B2FBF3F390
:1030A000BB8228E07B685B685B0803F5740303F56B
:1030B00010537A685268B3FBF2F3BB821BE0FFF750
:1030C000E3FC03465A007B685B685B081A447B6834
:1030D0005B68B2FBF3F3BB820DE07B685B685B0867
:1030E00003F580327B685B68B2FBF3F3BB8202E0DE
:1030F0000123FB7400BFBB8A23F00F037B81BB8AD3
:103100005B109BB203F007039AB27B8913437B8168
:103110007B681B687A89DA6069E0FB7D082B63D8DD
:1031200001A252F823F000BF4D3100086D310008B4
:103130008D310008E9310008AD310008E93100089F
:10314000E9310008E9310008CD3100087B681C68CE
:10315000FFF710FD02467B685B685B081A447B68DA
:103160005B68B2FBF3F39BB2E36040E07B681C68F2
:10317000FFF722FD02467B685B685B081A447B68A8
:103180005B68B2FBF3F39BB2E36030E07B681A68E4
:103190007B685B685B0803F5F40303F5905379687B
:1031A0004968B3FBF1F39BB2D36020E07B681C68F5
:1031B000FFF76AFC02467B685B685B081A447B6821
:1031C0005B68B2FBF3F39BB2E36010E07B681B68C3
:1031D0007A685268520802F500417A685268B1FB79
:1031E000F2F292B2DA6002E00123FB7400BFFB7CD2
:1031F00018461C37BD4690BDF369FFEF003801400B
:1032000000100240004400400048004080B483B0F9
:1032100000AF78607B685B6A03F00103002B0AD083
:103220007B681B687A681268526822F400317A68F9
:10323000926A0A435A607B685B6A03F00203002BC0
:103240000AD07B681B687A681268526822F4803161
:103250007A68D26A0A435A607B685B6A03F00403A7
:10326000002B0AD07B681B687A681268526822F4C7
:1032700080217A68126B0A435A607B685B6A03F0AC
:103280000803002B0AD07B681B687A6812685268B2
:1032900022F400417A68526B0A435A607B685B6A89
:1032A00003F01003002B0AD07B681B687A68126851
:1032B000926822F480517A68926B0A439A607B6824
:1032C0005B6A03F02003002B0AD07B681B687A68D6
:1032D0001268926822F400517A68D26B0A439A60AD
:1032E0007B685B6A03F04003002B1AD07B681B6885
:1032F0007A681268526822F480117A68126C0A4364
:103300005A607B681B6CB3F5801F0AD17B681B6811
:103310007A681268526822F4C0017A68526C0A43D3
:103320005A607B685B6A03F08003002B0AD07B68DD
:103330001B687A681268526822F400217A68926CDD
:103340000A435A6000BF0C37BD465DF8047B7047E6
:1033500080B586B002AF78600023FB607B680022F6
:10336000DA66FCF7DFFFF8607B681B681B6803F018
:103370000803082B0ED16FF07E430093FB680022F8
:103380004FF40011786800F02CF80346002B01D0B0
:10339000032322E07B681B681B6803F00403042BF3
:1033A0000ED16FF07E430093FB6800224FF4800142
:1033B000786800F016F80346002B01D003230CE0D8
:1033C0007B68202283F869207B68202283F86A20AA
:1033D0007B68002283F86820002318461037BD461A
:1033E00080BD80B584B000AFF860B9603B60134623
:1033F000FB712CE0BB69B3F1FF3F28D0BB69002B08
:1034000007D0FCF78FFF02463B68D21ABB699A428D
:103410001DD9FB681B68FA681268126822F4D07222
:103420001A60FB681B68FA681268926822F0010251
:103430009A60FB68202283F86920FB68202283F8C9
:103440006A20FB68002283F8682003230FE0FB68F2
:103450001B68DA69BB681A40BB689A420CBF01233B
:103460000023DBB21A46FB799A42C3D000231846E8
:103470001037BD4680BD000080B58AB000AF07F1AF
:103480001C0300221A605A609A603B1D00221A60D9
:103490005A609A60DA601A615A61344B4FF0A04268
:1034A0001A60324B4FF440325A60304B00229A601F
:1034B0002E4B01221A612D4B0122DA612B4B002287
:1034C0005A622A4B00221A63284B0122DA62274BE8
:1034D0000022DA60254B02221A62244B01225A6331
:1034E000224B04225A61214B00229A611F4B002279
:1034F0009A631E48FCF736FF0346002B01D000F00C
:103500005CF90023FB6107F11C0319461748FDF71E
:1035100051FC0346002B01D000F04FF901237B60E2
:103520000123BB6000233B610523FB6000237B611B
:103530000023BB613B1D19460C48FDF77DF903468E
:10354000002B01D000F039F902237B600223BB601D
:103550003B1D19460548FDF76FF90346002B01D0C6
:1035600000F02BF900BF2837BD4680BDA000002029
:1035700080B58AB000AF786007F1140300221A60AA
:103580005A609A60DA601A617B681B68B3F1A04FD9
:103590004CD1284A274B5B6943F080535361254B3C
:1035A0005B6903F080533B613B69224A214B5B69B5
:1035B00043F4003353611F4B5B6903F40033FB603A
:1035C000FB6803237B610323BB610023FB6107F1DD
:1035D000140319464FF09040FEF776F8164B174A41
:1035E0001A60154B00225A60134B00229A60124B4E
:1035F0008022DA60104B4FF480721A610E4B4FF448
:1036000080625A610C4B20229A610B4B0022DA61D6
:103610000948FDF7C2FE0346002B01D000F0CDF8AB
:103620007B68054ADA63044A7B68536200BF283727
:10363000BD4680BD00100240F4000020080002409A
:1036400080B582B000AF0C4A0B4B5B6943F00103BD
:103650005361094B5B6903F001037B607B680022C7
:1036600000210B20FDF763FE0B20FDF77CFE00BF61
:103670000837BD4680BD00BF0010024080B483B053
:1036800000AF0F4A0E4B5B6943F4800353610C4B50
:103690005B6903F480037B607B68094A084B5B69C4
:1036A00043F400335361064B5B6903F400333B6022
:1036B0003B6800BF0C37BD465DF8047B704700BF18
:1036C0000010024080B483B000AF786000BF0C37B8
:1036D000BD465DF8047B704780B500AF104B1B689A
:1036E0009B680021184600F0CBFAFCF7C1FD00F002
:1036F0001FF8FFF7C3FFFFF7A3FFFFF7BDFE00F0C2
:10370000D7F9022207490848FCF7BCFF054B1B8884
:103710001946044B5B881A46044800F099FAF5E70D
:103720000C0000208C000020A0000020D44B0008DA
:1037300080B590B000AF07F1180328220021184689
:1037400000F07EFA3B1D00221A605A609A60DA602F
:103750001A610123BB614FF48033FB6100233B629C
:103760000123BB6202237B634FF48033BB634FF4BE
:10377000E013FB6307F118031846FEF71BF9034635
:10378000002B01D000F019F80F237B600223BB60EF
:103790000023FB604FF480633B6100237B613B1D92
:1037A00002211846FEF7F4FF0346002B01D000F07B
:1037B00004F800BF4037BD4680BD80B400AF00BFF5
:1037C000BD465DF8047B704780B582B000AF78607D
:1037D000391D4FF6FF7301220348FFF760FA7B683B
:1037E00018460837BD4680BD3801002080B584B03A
:1037F00000AF78600023FB7307F10F014FF6FF73F2
:1038000001220A48FFF7D8FAFB7B0D2B04D10D20CB
:10381000FFF7DAFF0A23FB73FB7B1846FFF7D4FFA1
:10382000034618461037BD4680BD00BF3801002052
:1038300080B483B000AF0F4A0E4B9B6943F0010385
:1038400093610C4B9B6903F001037B607B68094A21
:10385000084BDB6943F08053D361064BDB6903F00F
:1038600080533B603B6800BF0C37BD465DF8047B6E
:10387000704700BF0010024080B400AF00BFBD46DB
:103880005DF8047B704780B400AFFEE780B400AF02
:10389000FEE780B400AFFEE780B400AFFEE780B47F
:1038A00000AF00BFBD465DF8047B704780B400AF39
:1038B00000BFBD465DF8047B704780B400AF00BF19
:1038C000BD465DF8047B704780B500AFFCF716FD80
:1038D00000BF80BD80B500AF0248FDF704FE00BF09
:1038E00080BD00BFF400002090B587B000AFF86045
:1038F000B9607A6000237B610AE0BC68631CBB602E
:10390000FFF774FF0346DBB223707B6901337B61F1
:103910007A697B689A42F0DB7B6818461C37BD46A3
:1039200090BD80B586B000AFF860B9607A600023C2
:103930007B6109E0BB685A1CBA601B781846FFF728
:1039400043FF7B6901337B617A697B689A42F1DBD3
:103950007B6818461837BD4680BD000080B584B02E
:1039600000AF7860114B1B68002B02D10F4B104A3F
:103970001A600E4B1B68FB600C4B1A687B68134483
:103980006A46934207D900F031F902460C231360CE
:103990004FF0FF3306E0054B1A687B681344034A77
:1039A0001360FB6818461037BD4680BD90000020AC
:1039B000AC01002080B483B000AF78604FF0FF33DB
:1039C00018460C37BD465DF8047B704780B483B061
:1039D00000AF786039603B684FF400525A600023B2
:1039E00018460C37BD465DF8047B704780B483B041
:1039F00000AF7860012318460C37BD465DF8047BA4
:103A0000704780B485B000AFF860B9607A60002379
:103A100018461437BD465DF8047B704780B400AF8C
:103A20001F4A1F4BD3F8883043F47003C2F8883024
:103A30001C4A1C4B1B6843F0010313601949194BC6
:103A40005A68194B13404B60164A164B1B6823F0FB
:103A5000847323F480331360124A124B1B6823F4DF
:103A6000802313600F4A0F4B5B6823F4FE035360FF
:103A70000C4A0C4BDB6A23F00F03D3620949094B54
:103A80001A6B0A4B13400B63064B00229A60044BDF
:103A90004FF000629A6000BFBD465DF8047B70473E
:103AA00000ED00E0001002400CC07FF8CCFC00FFED
:103AB00080B500AF144B154A1A60134B4FF41642F1
:103AC0005A60114B00229A600F4B0022DA600E4BB5
:103AD00000221A610C4B0C225A610B4B00229A6196
:103AE000094B0022DA61084B00221A62064B0022C1
:103AF0005A620548FFF782F80346002B01D0FFF712
:103B00005CFE00BF80BD00BF3801002000440040C3
:103B100080B58AB000AF786007F1140300221A6004
:103B20005A609A60DA601A617B681B68184A93428F
:103B300029D1184A174BDB6943F40033D361154B85
:103B4000DB6903F400333B613B69124A114B5B694B
:103B500043F4003353610F4B5B6903F40033FB60A4
:103B6000FB6848F204037B610223BB610023FB6115
:103B700003233B6207237B6207F1140319464FF0CE
:103B80009040FDF7A1FD00BF2837BD4680BD00BFB6
:103B90000044004000100240DFF834D0002103E070
:103BA0000C4B5B58435004310B480C4B42189A4263
:103BB000F6D30B4A02E0002342F8043B094B9A4239
:103BC000F9D3FFF72BFF00F017F8FFF785FDFEE7AD
:103BD00000300020C44C00080000002070000020CD
:103BE00070000020AC010020FEE70000014B1868C7
:103BF000704700BF0C00002070B50D4E0D4CA41B8B
:103C0000A4100025A54209D10B4E0C4C00F0D6FFA4
:103C1000A41BA4100025A54205D170BD56F825307F
:103C200098470135EEE756F8253098470135F2E719
:103C3000BC4C0008BC4C0008BC4C0008C04C000840
:103C400002440346934200D1704703F8011BF9E791
:103C50000FB40A4B13B51C6824B1A36913B92046ED
:103C600000F0B6F905AB049AA1680193204600F074
:103C70007BFB02B0BDE8104004B070470C00002090
:103C800000294FF480630CBF0222002200F000B82C
:103C90002DE9F7431D46514B1E6804460F469046DA
:103CA00026B1B36913B9304600F092F94C4B9C42EF
:103CB00052D17468B8F1020F06D0B8F1010F00F2CA
:103CC0008980002DC0F286802146304600F016F92A
:103CD000616B41B104F14403994202D0304600F0D7
:103CE0006DFA002363630023A3616360A3891B064D
:103CF00003D52169304600F061FAA38923F44A63B1
:103D000023F00303B8F1020FA3815DD001AB6A4633
:103D10002146304600F0E6F9A3891843A0812DBB67
:103D2000009D284600F042FA074600284ED1DDF8F3
:103D30000090A9453CD14FF0FF30A38943F0020326
:103D4000A3810023A36004F14703236023610123BF
:103D5000636103B0BDE8F083224B9C4201D1B4689B
:103D6000A8E7214B9C4208BFF468A3E7002FD8D0F6
:103D7000B36913B9304600F02BF9B8F1010F08BF51
:103D8000A389276004BF43F00103A381A3892761AE
:103D900013F0080065611BD013F0010018BF6D42DD
:103DA0004FF000031DBFA360A5611846A560D0E7D2
:103DB000484600F0FBF907460028BCD0A38943F031
:103DC0008003A3814D46D3E70020B6E7A946F5E777
:103DD000A060BEE74FF0FF30BBE700BF0C00002043
:103DE000484C0008684C0008284C00088A892DE9D6
:103DF000F041054610070C465AD44B68002B05DCF1
:103E00000B6C002B02DC0020BDE8F081E66A002E7E
:103E1000F9D0002312F480522F682B6033D0606DEC
:103E2000A3895A0705D56368C01A636B0BB1236C6D
:103E3000C01A00230246E66A216A2846B047431C9E
:103E4000A38906D129681D294BD82B4ACA40D60719
:103E500047D500226260D9042269226004D5421C41
:103E600001D12B6803B96065616B2F600029CAD04E
:103E700004F14403994202D0284600F09FF9002043
:103E80006063BDE8F081216A01232846B047411CE8
:103E9000C6D12B68002BC3D01D2B01D0162B01D10E
:103EA0002F60B0E7A38943F04003A381BDE8F08110
:103EB0000F69002FA7D093070E6808BF4B690F60EA
:103EC00018BF0023A6EB07088B60B8F1000F9ADD3E
:103ED00043463A46216AA66A2846B047002807DCCE
:103EE000A38943F04003A3814FF0FF30BDE8F08188
:103EF0000744A8EB0008E8E70100402038B50B694B
:103F000005460C46DBB118B183690BB900F060F8C7
:103F10000C4B9C4209D16C68B4F90C307BB1214642
:103F20002846BDE83840FFF761BF074B9C4201D1EE
:103F3000AC68F1E7054B9C4208BFEC68ECE7002059
:103F400038BD00BF484C0008684C0008284C0008E9
:103F5000014900F0A9B800BFFD3E0008002310B5DC
:103F6000044603604360836081814366C2810361CC
:103F700043618361194608225C30FFF761FE054BFF
:103F80006362054BA362054BE362054B2462236326
:103F900010BD00BFE1480008034900083B49000884
:103FA0005F49000870B54A1E682555430E4605F165
:103FB000740100F051F9044640B1002180E842004C
:103FC0000C30A06005F16802FFF73AFE204670BD94
:103FD000836910B5044633BB8364C3640365124B25
:103FE000124A1B688262984204BF0123836100F079
:103FF0001FF86060204600F01BF8A060204600F02B
:1040000017F80022E06004216068FFF7A7FF012293
:104010000921A068FFF7A2FF02221221E068FFF742
:104020009DFF0123A36110BD244C0008513F0008EF
:10403000F8B51C4B1E68B369074613B93046FFF745
:10404000C7FF4836B4687368013B03D5336833B1A2
:104050003668F7E7B4F90C506DB16834F4E7042121
:104060003846FFF79FFF30600028F1D10C233B60FA
:1040700004462046F8BD4FF6FF73E3810123A38178
:1040800065662560A560656025616561A56108229A
:10409000294604F15C00FFF7D3FD6563A563A564C1
:1040A000E564E6E7244C00082DE9F843804689469C
:1040B00000F14804002614B93046BDE8F883A5682D
:1040C0006768013F01D52468F5E7AB89012B07D963
:1040D000B5F90E30013303D029464046C8470643A0
:1040E0006835EEE770B50E46B1F90E10002990B0B4
:1040F00014461D4607DA00232B60B3891A0610D434
:104100004FF480630EE001AA00F010FD0028F2DBFE
:10411000029A02F47042A2F500535A425A412A60B0
:10412000EEE740230020236010B070BD8B8973B58B
:104130009D0706460C4607D504F14703236023611B
:104140000123636102B070BD01AB6A46FFF7CAFF8D
:1041500000990546304600F07FF848B9B4F90C30B4
:104160009A05EFD423F0030343F00203A381E3E7AE
:104170000D4BB362A389206043F08003A381009BB1
:104180006361019B20615BB1B4F90E10304600F011
:10419000DFFC28B1A38923F0030343F00103A381CB
:1041A000A3891D43A581CDE7513F0008024B01467D
:1041B000186800F051B800BF0C00002038B5054663
:1041C000002945D051F8043C0C1F002BB8BFE4185F
:1041D00000F0E0FC1F4A1368104633B963601460B6
:1041E0002846BDE8384000F0D6BCA3420CD921686F
:1041F0006218934204BF1A685B68636004BF521878
:1042000022600460ECE713465A680AB1A242FAD968
:1042100019685818A0420BD12068014458188242EE
:104220001960DDD1106852685A6001441960D7E7FF
:1042300002D90C232B60D3E7206821188A4204BFDF
:1042400011685268626004BF091821605C60C7E7AA
:1042500038BD00BF9400002070B5CD1C25F00305CB
:1042600008350C2D38BF0C25002D064601DBA94270
:1042700003D90C233360002070BD00F08BFC234A6F
:104280001468214691B9224C23681BB9304600F0CE
:1042900017FB20602946304600F012FB431C26D154
:1042A0000C233360304600F076FCE4E70B685B1BC0
:1042B0001AD40B2B0FD90B60CD50CC18304600F020
:1042C0006AFC04F10B00231D20F00700C31A1BD069
:1042D0005A42E25070BD8C420DBF63684B68636008
:1042E000136018BF0C46E9E70C464968CAE7C41CCE
:1042F00024F00304A04205D0211A304600F0E0FA71
:104300000130CDD02560D9E770BD00BF94000020FA
:10431000980000209368013B002B10B4936009DAE9
:104320009469A34202DBCBB20A2B03D15DF8044BA4
:1043300000F01ABB1368581C10601970C8B25DF801
:10434000044B7047F8B506460F461446D518AC42E4
:1043500001D1002007E03A4614F8011B3046FFF770
:10436000D9FF431CF3D1F8BD2DE9F04F9DB00C46A9
:1043700017460393064618B183690BB9FFF728FE69
:104380007C4B9C4257D17468A38918075DD523697B
:10439000002B5AD00023099320238DF82930302395
:1043A0008DF82A304FF0010BB846454615F8013B11
:1043B000002B55D1B8EB070A0BD053463A4621469D
:1043C0003046FFF7BFFF013000F0C480099B534423
:1043D000099398F80030002B00F0BC8000234FF0C8
:1043E000FF3204930793059206938DF853301A9386
:1043F000052229786048FBF7EBFE05F10108049BD4
:10440000002831D1D90644BF20228DF853201A0745
:1044100044BF2B228DF853202A782A2A2CD0079AC1
:1044200000210A20A846013598F80030303B092BBE
:104430006DD971B326E0514B9C4201D1B468A3E71A
:104440004F4B9C4208BFF4689EE72146304600F07F
:10445000EFFA00289ED04FF0FF301DB0BDE8F08F7E
:10446000252BA7D0A846A0E7434A801A0BFA00F0F4
:10447000184304904546BBE7039A111D1268039147
:10448000002A01DB079204E0524243F00203079244
:10449000049398F800302E2B10D198F801302A2B75
:1044A00008F1010137D1039B1A1D1B680392002BF1
:1044B000B8BF4FF0FF3308F102080593314D98F86B
:1044C000001003222846FBF783FE40B14023401B27
:1044D00003FA00F0049B0343049308F1010898F8E1
:1044E000001029488DF82810062208F10107FBF773
:1044F0006FFE002834D0254B03BB039B073323F00A
:10450000070308330393099B4B4409934CE700FBD3
:104510000232012186E70023059318460A258846C2
:10452000013198F80020303A092A03D9002BC5D070
:104530000590C3E705FB00200123F0E703AB0093E0
:104540002246134B04A93046AFF30080B0F1FF3F81
:104550008146D8D1A3895B063FF57DAF09987CE7FA
:1045600003AB009322460A4B04A9304600F088F8BA
:10457000ECE700BF484C0008884C0008684C000875
:10458000284C00088E4C0008924C000800000000E7
:10459000454300082DE9F04791461F468A680B699C
:1045A000DDF820809342B8BF1346C9F8003091F877
:1045B000432006460C4612B10133C9F80030236887
:1045C000990642BFD9F800300233C9F80030256897
:1045D00015F0060507D104F1190AE368D9F800209F
:1045E0009B1A9D4229DB94F843302268003318BFA0
:1045F000012392062ED404F1430239463046C047C7
:10460000013021D02368E568D9F8002003F00603C3
:10461000042B08BFAD1AA36822690CBF25EAE57513
:1046200000259342C4BF9B1AED184FF000091A34BD
:104630004D451BD10020BDE8F08701235246394685
:104640003046C047013003D14FF0FF30BDE8F0875E
:104650000135C2E7E1185A1C302081F8430022449A
:1046600094F8451082F843100233C4E70123224630
:1046700039463046C0470130E6D009F10109D7E795
:104680002DE9F04317460A7E85B06E2A9846064605
:104690000C460C9B01F1430E00F0BC801AD8632A33
:1046A0002ED00AD8002A00F0C880582A00F08A804C
:1046B00004F1420584F842202AE0642A01D0692AE4
:1046C000F6D121681A6811F0800F23D0111D1960EE
:1046D000136827E0732A00F0B48008D86F2A2AD024
:1046E000702AE5D10A6842F020020A6003E0752AC8
:1046F00021D0782ADCD1782284F845206E4964E004
:104700001A6801F14205111D1960136884F84230DE
:104710000123A3E011F0400F02F104011960D7D08A
:10472000B2F90030002B03DA2D225B4284F84320DB
:1047300062490A2217E02068196810F0800F03D040
:10474000081D18600B6806E010F0400F01F104002E
:104750001860F7D00B8859496F2A14BF0A22082223
:10476000002084F843006568A560002DC0F29C809D
:10477000206820F004002060002B3FD1002D40F085
:1047800095807546082A0BD12368DA0708D5236976
:1047900062689A42DEBF302305F8013C05F1FF351F
:1047A000AEEB05032361CDF800803B4603AA21460A
:1047B0003046FFF7EFFE013055D14FF0FF3005B026
:1047C000BDE8F08381F845203C492268186812F062
:1047D000800F00F104051D6001D0036802E055065A
:1047E000FBD50388D00744BF42F0200222601BB9EA
:1047F000226822F0200222601022B1E77546B3FB46
:10480000F2F002FB1033CB5C05F8013D03460028B3
:10481000F5D1B7E708681A68496910F0800F04D02D
:10482000101D18601368196007E010F0400F02F1C6
:10483000040018601368F6D01980002323617546C0
:10484000B1E71A68111D19601568626800212846D1
:10485000FBF7BEFC08B1401B606063682361002366
:1048600084F843309FE723692A4639463046C047DB
:104870000130A2D023689B0707D5002504F1190950
:10488000E368039A9B1A9D4205DBE068039B98420C
:10489000B8BF184693E701234A4639463046C04719
:1048A00001308AD00135EBE7002BA7D10B7884F8D3
:1048B000423004F1420565E7AA4C0008994C000813
:1048C00038B5064C0023054608462360FFF746F836
:1048D000431C02D1236803B12B6038BDA80100201E
:1048E00010B50C46B1F90E1000F056F90028ABBF18
:1048F000636DA3891B1823F48053ACBF6365A38148
:1049000010BD2DE9F0411F468B89DB0505460C469D
:10491000164605D502230022B1F90E1000F028F941
:10492000A389B4F90E1023F48053A38132463B4689
:104930002846BDE8F04100F069B810B50C46B1F961
:104940000E1000F015F9431CA38915BF606523F410
:10495000805343F48053A38118BFA38110BDB1F9E4
:104960000E1000F0D3B80000F8B50E461446054608
:1049700018B183690BB9FFF72BFB214B9C422AD15D
:104980006C68A369A360A3891A072ED5236963B352
:1049900023692068C01A6369F6B29842374604DB7F
:1049A00021462846FFF7AAFA28BBA368013BA3606B
:1049B00023685A1C22601E7063690130984204D03B
:1049C000A389DB0719D50A2E17D121462846FFF700
:1049D00095FA90B10FE00B4B9C4201D1AC68D0E747
:1049E000094B9C4208BFEC68CBE72146284600F003
:1049F0001FF80028CCD04FF0FF373846F8BD00BF75
:104A0000484C0008684C0008284C000838B5074C92
:104A1000054608461146002222601A46FEF781FF2D
:104A2000431C02D1236803B12B6038BDA8010020CC
:104A3000324B70B51D6806460C4625B1AB6913B9FB
:104A40002846FFF7C5FA2E4B9C420FD16C68B4F98B
:104A50000C309AB215072CD4D00611D4092232603A
:104A600043F04003A3814FF0FF3070BD254B9C42C3
:104A700001D1AC68EBE7244B9C4208BFEC68E6E749
:104A8000510712D5616B41B104F14403994202D040
:104A90003046FFF793FB00236363A38923F02403CD
:104AA000A3810023636023692360A38943F0080383
:104AB000A38123694BB9A38903F42073B3F5007F65
:104AC00003D021463046FFF731FBA28912F00103E3
:104AD0000CD00023A36063695B42A361236953B9CF
:104AE000B4F90C3013F08000BAD170BD920758BFF2
:104AF0006369A360F2E70020F7E700BF0C00002025
:104B0000484C0008684C0008284C000838B5064C92
:104B10000023054608462360FEF74CFF431C02D1E4
:104B2000236803B12B6038BDA801002038B5074CBD
:104B300000230546084611462360FEF747FF431C45
:104B400002D1236803B12B6038BD00BFA80100204B
:104B500038B5064C0023054608462360FEF746FF9D
:104B6000431C02D1236803B12B6038BDA80100208B
:104B700038B5074C054608461146002222601A4601
:104B8000FEF73FFF431C02D1236803B12B6038BD01
:104B9000A80100207047704738B5074C0546084605
:104BA0001146002222601A46FEF79EFE431C02D1E7
:104BB000236803B12B6038BDA8010020F8B500BF01
:104BC000F8BC08BC9E467047F8B500BFF8BC08BCEE
:044BD0009E46704746
:104BD4007661756C65313A25642076616C75653251
:104BE4003A25640A0D0000000203040506070809BB
:104BF4000A0B0C0D0E0F1010010203040506070822
:104C0400090A0B0C0D0E0F1000000000000000003C
:104C1400010203040607080900000000010203045E
:104C24001000002000000000000000000000000050
:104C34000000000000000000000000000000000070
:104C44000000000000000000000000000000000060
:104C54000000000000000000000000000000000050
:104C64000000000000000000000000000000000040
:104C74000000000000000000000000000000000030
:104C840000000000232D302B2000686C4C0065666A
:104C94006745464700303132333435363738394189
:104CA400424344454600303132333435363738399F
:084CB4006162636465660000A3
:044CBC00B501000836
:044CC0009101000856
:104CC400100000000100000000127A001000002013
:104CD40000000000484C0008684C0008284C0008FC
:104CE40000000000000000000000000000000000C0
:104CF40000000000000000000000000000000000B0
:104D0400000000000000000000000000000000009F
:104D1400000000000000000000000000000000008F
:104D2400000000000000000000000000000000007F
:0400000508003B991B
:00000001FF
